{
  "_format": "hh-sol-artifact-1",
  "contractName": "Crowdfunding",
  "sourceName": "contracts/Crowdfunding.sol",
  "abi": [
    {
      "inputs": [
        {
          "internalType": "contract IERC20",
          "name": "token",
          "type": "address"
        },
        {
          "internalType": "uint256",
          "name": "_tokenAmount",
          "type": "uint256"
        },
        {
          "internalType": "address payable",
          "name": "_wallet",
          "type": "address"
        }
      ],
      "stateMutability": "nonpayable",
      "type": "constructor"
    },
    {
      "anonymous": false,
      "inputs": [
        {
          "indexed": true,
          "internalType": "address",
          "name": "purchaser",
          "type": "address"
        },
        {
          "indexed": true,
          "internalType": "address",
          "name": "beneficiary",
          "type": "address"
        },
        {
          "indexed": false,
          "internalType": "uint256",
          "name": "amount",
          "type": "uint256"
        }
      ],
      "name": "TokenDonate",
      "type": "event"
    },
    {
      "inputs": [],
      "name": "_crowdfunding",
      "outputs": [
        {
          "internalType": "address",
          "name": "",
          "type": "address"
        }
      ],
      "stateMutability": "view",
      "type": "function"
    },
    {
      "inputs": [],
      "name": "_getTokenAmount",
      "outputs": [
        {
          "internalType": "uint256",
          "name": "",
          "type": "uint256"
        }
      ],
      "stateMutability": "view",
      "type": "function"
    },
    {
      "inputs": [
        {
          "internalType": "uint256",
          "name": "",
          "type": "uint256"
        }
      ],
      "name": "campaigns",
      "outputs": [
        {
          "internalType": "address",
          "name": "owner",
          "type": "address"
        },
        {
          "internalType": "string",
          "name": "title",
          "type": "string"
        },
        {
          "internalType": "string",
          "name": "url",
          "type": "string"
        },
        {
          "internalType": "string",
          "name": "description",
          "type": "string"
        },
        {
          "internalType": "uint256",
          "name": "target",
          "type": "uint256"
        },
        {
          "internalType": "uint256",
          "name": "deadline",
          "type": "uint256"
        },
        {
          "internalType": "uint256",
          "name": "amountCollected",
          "type": "uint256"
        },
        {
          "internalType": "string",
          "name": "image",
          "type": "string"
        },
        {
          "internalType": "address",
          "name": "invited",
          "type": "address"
        },
        {
          "internalType": "bool",
          "name": "exists",
          "type": "bool"
        }
      ],
      "stateMutability": "view",
      "type": "function"
    },
    {
      "inputs": [
        {
          "internalType": "string",
          "name": "_title",
          "type": "string"
        },
        {
          "internalType": "string",
          "name": "_url",
          "type": "string"
        },
        {
          "internalType": "string",
          "name": "_description",
          "type": "string"
        },
        {
          "internalType": "uint256",
          "name": "_target",
          "type": "uint256"
        },
        {
          "internalType": "uint256",
          "name": "_deadline",
          "type": "uint256"
        },
        {
          "internalType": "string",
          "name": "_image",
          "type": "string"
        },
        {
          "internalType": "address",
          "name": "_invited",
          "type": "address"
        }
      ],
      "name": "createCampaign",
      "outputs": [
        {
          "internalType": "uint256",
          "name": "",
          "type": "uint256"
        }
      ],
      "stateMutability": "nonpayable",
      "type": "function"
    },
    {
      "inputs": [
        {
          "internalType": "uint256",
          "name": "_id",
          "type": "uint256"
        }
      ],
      "name": "donateToCampaign",
      "outputs": [],
      "stateMutability": "payable",
      "type": "function"
    },
    {
      "inputs": [
        {
          "internalType": "uint256",
          "name": "_id",
          "type": "uint256"
        }
      ],
      "name": "getCampaign",
      "outputs": [
        {
          "components": [
            {
              "internalType": "address",
              "name": "owner",
              "type": "address"
            },
            {
              "internalType": "string",
              "name": "title",
              "type": "string"
            },
            {
              "internalType": "string",
              "name": "url",
              "type": "string"
            },
            {
              "internalType": "string",
              "name": "description",
              "type": "string"
            },
            {
              "internalType": "uint256",
              "name": "target",
              "type": "uint256"
            },
            {
              "internalType": "uint256",
              "name": "deadline",
              "type": "uint256"
            },
            {
              "internalType": "uint256",
              "name": "amountCollected",
              "type": "uint256"
            },
            {
              "internalType": "string",
              "name": "image",
              "type": "string"
            },
            {
              "internalType": "address[]",
              "name": "donators",
              "type": "address[]"
            },
            {
              "internalType": "uint256[]",
              "name": "donations",
              "type": "uint256[]"
            },
            {
              "internalType": "address",
              "name": "invited",
              "type": "address"
            },
            {
              "internalType": "bool",
              "name": "exists",
              "type": "bool"
            }
          ],
          "internalType": "struct Crowdfunding.Campaign",
          "name": "",
          "type": "tuple"
        }
      ],
      "stateMutability": "view",
      "type": "function"
    },
    {
      "inputs": [],
      "name": "getCampaigns",
      "outputs": [
        {
          "components": [
            {
              "internalType": "address",
              "name": "owner",
              "type": "address"
            },
            {
              "internalType": "string",
              "name": "title",
              "type": "string"
            },
            {
              "internalType": "string",
              "name": "url",
              "type": "string"
            },
            {
              "internalType": "string",
              "name": "description",
              "type": "string"
            },
            {
              "internalType": "uint256",
              "name": "target",
              "type": "uint256"
            },
            {
              "internalType": "uint256",
              "name": "deadline",
              "type": "uint256"
            },
            {
              "internalType": "uint256",
              "name": "amountCollected",
              "type": "uint256"
            },
            {
              "internalType": "string",
              "name": "image",
              "type": "string"
            },
            {
              "internalType": "address[]",
              "name": "donators",
              "type": "address[]"
            },
            {
              "internalType": "uint256[]",
              "name": "donations",
              "type": "uint256[]"
            },
            {
              "internalType": "address",
              "name": "invited",
              "type": "address"
            },
            {
              "internalType": "bool",
              "name": "exists",
              "type": "bool"
            }
          ],
          "internalType": "struct Crowdfunding.Campaign[]",
          "name": "",
          "type": "tuple[]"
        }
      ],
      "stateMutability": "view",
      "type": "function"
    },
    {
      "inputs": [
        {
          "internalType": "uint256",
          "name": "_id",
          "type": "uint256"
        }
      ],
      "name": "getDonators",
      "outputs": [
        {
          "internalType": "address[]",
          "name": "",
          "type": "address[]"
        },
        {
          "internalType": "uint256[]",
          "name": "",
          "type": "uint256[]"
        }
      ],
      "stateMutability": "view",
      "type": "function"
    },
    {
      "inputs": [
        {
          "internalType": "uint256",
          "name": "_id",
          "type": "uint256"
        }
      ],
      "name": "getVoting",
      "outputs": [
        {
          "internalType": "bool",
          "name": "",
          "type": "bool"
        }
      ],
      "stateMutability": "view",
      "type": "function"
    },
    {
      "inputs": [],
      "name": "numberOfCampaigns",
      "outputs": [
        {
          "internalType": "uint256",
          "name": "",
          "type": "uint256"
        }
      ],
      "stateMutability": "view",
      "type": "function"
    },
    {
      "inputs": [
        {
          "internalType": "address",
          "name": "_crowdfund",
          "type": "address"
        }
      ],
      "name": "setCrowdfundingAddress",
      "outputs": [],
      "stateMutability": "nonpayable",
      "type": "function"
    },
    {
      "inputs": [
        {
          "internalType": "uint256",
          "name": "_id",
          "type": "uint256"
        },
        {
          "internalType": "uint256",
          "name": "_amount",
          "type": "uint256"
        }
      ],
      "name": "setVoting",
      "outputs": [],
      "stateMutability": "payable",
      "type": "function"
    },
    {
      "inputs": [],
      "name": "tokenAmount",
      "outputs": [
        {
          "internalType": "uint256",
          "name": "",
          "type": "uint256"
        }
      ],
      "stateMutability": "view",
      "type": "function"
    },
    {
      "inputs": [
        {
          "internalType": "uint256",
          "name": "",
          "type": "uint256"
        }
      ],
      "name": "votingsCampaigns",
      "outputs": [
        {
          "internalType": "bool",
          "name": "",
          "type": "bool"
        }
      ],
      "stateMutability": "view",
      "type": "function"
    },
    {
      "inputs": [],
      "name": "wallet",
      "outputs": [
        {
          "internalType": "address payable",
          "name": "",
          "type": "address"
        }
      ],
      "stateMutability": "view",
      "type": "function"
    }
  ],
  "bytecode": "0x608060405260006007553480156200001657600080fd5b5060405162003b8b38038062003b8b83398181016040528101906200003c919062000264565b6001600081905550600073ffffffffffffffffffffffffffffffffffffffff168173ffffffffffffffffffffffffffffffffffffffff16036200007e57600080fd5b82600160006101000a81548173ffffffffffffffffffffffffffffffffffffffff021916908373ffffffffffffffffffffffffffffffffffffffff160217905550670de0b6b3a764000082620000d59190620002ef565b60088190555033600260006101000a81548173ffffffffffffffffffffffffffffffffffffffff021916908373ffffffffffffffffffffffffffffffffffffffff16021790555080600460006101000a81548173ffffffffffffffffffffffffffffffffffffffff021916908373ffffffffffffffffffffffffffffffffffffffff1602179055505050506200033a565b600080fd5b600073ffffffffffffffffffffffffffffffffffffffff82169050919050565b600062000198826200016b565b9050919050565b6000620001ac826200018b565b9050919050565b620001be816200019f565b8114620001ca57600080fd5b50565b600081519050620001de81620001b3565b92915050565b6000819050919050565b620001f981620001e4565b81146200020557600080fd5b50565b6000815190506200021981620001ee565b92915050565b60006200022c826200016b565b9050919050565b6200023e816200021f565b81146200024a57600080fd5b50565b6000815190506200025e8162000233565b92915050565b60008060006060848603121562000280576200027f62000166565b5b60006200029086828701620001cd565b9350506020620002a38682870162000208565b9250506040620002b6868287016200024d565b9150509250925092565b7f4e487b7100000000000000000000000000000000000000000000000000000000600052601160045260246000fd5b6000620002fc82620001e4565b91506200030983620001e4565b92508282026200031981620001e4565b91508282048414831517620003335762000332620002c0565b5b5092915050565b613841806200034a6000396000f3fe6080604052600436106100e85760003560e01c80635598f8cc1161008a578063a85b6f9a11610059578063a85b6f9a1461031b578063d79abcd714610344578063eec7faa114610381578063fb8cbe7e146103ac576100e8565b80635598f8cc1461025d5780635ed4d7ae1461029a57806383b322f8146102c5578063a6b03633146102f0576100e8565b80633afc7282116100c65780633afc72821461019c57806342a4fda8146101d95780634c1fb753146101f5578063521eb27314610232576100e8565b806307ca140d146100ed5780630fa91fa914610118578063141961bc14610156575b600080fd5b3480156100f957600080fd5b506101026103c8565b60405161010f91906120b9565b60405180910390f35b34801561012457600080fd5b5061013f600480360381019061013a9190612114565b6103ce565b60405161014d9291906122ef565b60405180910390f35b34801561016257600080fd5b5061017d60048036038101906101789190612114565b6105a3565b6040516101939a999897969594939291906123e0565b60405180910390f35b3480156101a857600080fd5b506101c360048036038101906101be9190612114565b610864565b6040516101d09190612498565b60405180910390f35b6101f360048036038101906101ee9190612114565b61088e565b005b34801561020157600080fd5b5061021c60048036038101906102179190612614565b610b51565b60405161022991906120b9565b60405180910390f35b34801561023e57600080fd5b50610247610e79565b6040516102549190612747565b60405180910390f35b34801561026957600080fd5b50610284600480360381019061027f9190612114565b610e9f565b60405161029191906129c0565b60405180910390f35b3480156102a657600080fd5b506102af611391565b6040516102bc91906120b9565b60405180910390f35b3480156102d157600080fd5b506102da61139b565b6040516102e791906129e2565b60405180910390f35b3480156102fc57600080fd5b506103056113c1565b6040516103129190612be6565b60405180910390f35b34801561032757600080fd5b50610342600480360381019061033d9190612c08565b61189b565b005b34801561035057600080fd5b5061036b60048036038101906103669190612114565b61196f565b6040516103789190612498565b60405180910390f35b34801561038d57600080fd5b5061039661198f565b6040516103a391906120b9565b60405180910390f35b6103c660048036038101906103c19190612c35565b611995565b005b60075481565b60608060006005600085815260200190815260200160002090506001151581600a0160149054906101000a900460ff16151514610440576040517f08c379a000000000000000000000000000000000000000000000000000000000815260040161043790612cc1565b60405180910390fd5b683635c9adc5dea0000061045333611cfa565b11610493576040517f08c379a000000000000000000000000000000000000000000000000000000000815260040161048a90612d2d565b60405180910390fd5b60056000858152602001908152602001600020600801600560008681526020019081526020016000206009018180548060200260200160405190810160405280929190818152602001828054801561054057602002820191906000526020600020905b8160009054906101000a900473ffffffffffffffffffffffffffffffffffffffff1673ffffffffffffffffffffffffffffffffffffffff16815260200190600101908083116104f6575b505050505091508080548060200260200160405190810160405280929190818152602001828054801561059257602002820191906000526020600020905b81548152602001906001019080831161057e575b505050505090509250925050915091565b60056020528060005260406000206000915090508060000160009054906101000a900473ffffffffffffffffffffffffffffffffffffffff16908060010180546105ec90612d7c565b80601f016020809104026020016040519081016040528092919081815260200182805461061890612d7c565b80156106655780601f1061063a57610100808354040283529160200191610665565b820191906000526020600020905b81548152906001019060200180831161064857829003601f168201915b50505050509080600201805461067a90612d7c565b80601f01602080910402602001604051908101604052809291908181526020018280546106a690612d7c565b80156106f35780601f106106c8576101008083540402835291602001916106f3565b820191906000526020600020905b8154815290600101906020018083116106d657829003601f168201915b50505050509080600301805461070890612d7c565b80601f016020809104026020016040519081016040528092919081815260200182805461073490612d7c565b80156107815780601f1061075657610100808354040283529160200191610781565b820191906000526020600020905b81548152906001019060200180831161076457829003601f168201915b5050505050908060040154908060050154908060060154908060070180546107a890612d7c565b80601f01602080910402602001604051908101604052809291908181526020018280546107d490612d7c565b80156108215780601f106107f657610100808354040283529160200191610821565b820191906000526020600020905b81548152906001019060200180831161080457829003601f168201915b50505050509080600a0160009054906101000a900473ffffffffffffffffffffffffffffffffffffffff169080600a0160149054906101000a900460ff1690508a565b60006006600083815260200190815260200160002060009054906101000a900460ff169050919050565b610896611d9f565b60006108a133611cfa565b90506000600560008481526020019081526020016000209050683635c9adc5dea000006108cd33611cfa565b1161090d576040517f08c379a000000000000000000000000000000000000000000000000000000000815260040161090490612d2d565b60405180910390fd5b6001151581600a0160149054906101000a900460ff16151514610965576040517f08c379a000000000000000000000000000000000000000000000000000000000815260040161095c90612cc1565b60405180910390fd5b428160050154116109ab576040517f08c379a00000000000000000000000000000000000000000000000000000000081526004016109a290612df9565b60405180910390fd5b6109dd336000848460000160009054906101000a900473ffffffffffffffffffffffffffffffffffffffff1687611dee565b610a0d8160000160009054906101000a900473ffffffffffffffffffffffffffffffffffffffff16600854611f54565b8060000160009054906101000a900473ffffffffffffffffffffffffffffffffffffffff1673ffffffffffffffffffffffffffffffffffffffff163373ffffffffffffffffffffffffffffffffffffffff167fdeef8639c165a81a17cd8302f07d36a1aabdf9f175e54c7b253c2e1352f2d4a6600854604051610a9091906120b9565b60405180910390a380600801339080600181540180825580915050600190039060005260206000200160009091909190916101000a81548173ffffffffffffffffffffffffffffffffffffffff021916908373ffffffffffffffffffffffffffffffffffffffff1602179055508060090160085490806001815401808255809150506001900390600052602060002001600090919091909150556008548160060154610b3c9190612e48565b81600601819055505050610b4e611f62565b50565b6000610b5b611d9f565b60008851905060008751905068056bc75e2d63100000871015610bb3576040517f08c379a0000000000000000000000000000000000000000000000000000000008152600401610baa90612ec8565b60405180910390fd5b681b1ae4d6e2ef500000871115610bff576040517f08c379a0000000000000000000000000000000000000000000000000000000008152600401610bf690612f34565b60405180910390fd5b428611610c41576040517f08c379a0000000000000000000000000000000000000000000000000000000008152600401610c3890612fa0565b60405180910390fd5b683635c9adc5dea00000610c5433611cfa565b11610c94576040517f08c379a0000000000000000000000000000000000000000000000000000000008152600401610c8b90612d2d565b60405180910390fd5b60328210610cd7576040517f08c379a0000000000000000000000000000000000000000000000000000000008152600401610cce9061300c565b60405180910390fd5b60c88110610d1a576040517f08c379a0000000000000000000000000000000000000000000000000000000008152600401610d1190613078565b60405180910390fd5b60006005600060075481526020019081526020016000209050338160000160006101000a81548173ffffffffffffffffffffffffffffffffffffffff021916908373ffffffffffffffffffffffffffffffffffffffff1602179055508a816001019081610d879190613244565b5089816002019081610d999190613244565b5088816003019081610dab9190613244565b508781600401819055508681600501819055506000816006018190555085816007019081610dd99190613244565b508481600a0160006101000a81548173ffffffffffffffffffffffffffffffffffffffff021916908373ffffffffffffffffffffffffffffffffffffffff160217905550600181600a0160146101000a81548160ff02191690831515021790555060076000815480929190610e4d90613316565b91905055506001600754610e61919061335e565b9350505050610e6e611f62565b979650505050505050565b600460009054906101000a900473ffffffffffffffffffffffffffffffffffffffff1681565b610ea7612011565b683635c9adc5dea00000610eba33611cfa565b11610efa576040517f08c379a0000000000000000000000000000000000000000000000000000000008152600401610ef1906133de565b60405180910390fd5b60006005600084815260200190815260200160002090506001151581600a0160149054906101000a900460ff16151514610f69576040517f08c379a0000000000000000000000000000000000000000000000000000000008152600401610f6090612cc1565b60405180910390fd5b80604051806101800160405290816000820160009054906101000a900473ffffffffffffffffffffffffffffffffffffffff1673ffffffffffffffffffffffffffffffffffffffff1673ffffffffffffffffffffffffffffffffffffffff168152602001600182018054610fdc90612d7c565b80601f016020809104026020016040519081016040528092919081815260200182805461100890612d7c565b80156110555780601f1061102a57610100808354040283529160200191611055565b820191906000526020600020905b81548152906001019060200180831161103857829003601f168201915b5050505050815260200160028201805461106e90612d7c565b80601f016020809104026020016040519081016040528092919081815260200182805461109a90612d7c565b80156110e75780601f106110bc576101008083540402835291602001916110e7565b820191906000526020600020905b8154815290600101906020018083116110ca57829003601f168201915b5050505050815260200160038201805461110090612d7c565b80601f016020809104026020016040519081016040528092919081815260200182805461112c90612d7c565b80156111795780601f1061114e57610100808354040283529160200191611179565b820191906000526020600020905b81548152906001019060200180831161115c57829003601f168201915b505050505081526020016004820154815260200160058201548152602001600682015481526020016007820180546111b090612d7c565b80601f01602080910402602001604051908101604052809291908181526020018280546111dc90612d7c565b80156112295780601f106111fe57610100808354040283529160200191611229565b820191906000526020600020905b81548152906001019060200180831161120c57829003601f168201915b50505050508152602001600882018054806020026020016040519081016040528092919081815260200182805480156112b757602002820191906000526020600020905b8160009054906101000a900473ffffffffffffffffffffffffffffffffffffffff1673ffffffffffffffffffffffffffffffffffffffff168152602001906001019080831161126d575b505050505081526020016009820180548060200260200160405190810160405280929190818152602001828054801561130f57602002820191906000526020600020905b8154815260200190600101908083116112fb575b50505050508152602001600a820160009054906101000a900473ffffffffffffffffffffffffffffffffffffffff1673ffffffffffffffffffffffffffffffffffffffff1673ffffffffffffffffffffffffffffffffffffffff168152602001600a820160149054906101000a900460ff161515151581525050915050919050565b6000600854905090565b600360009054906101000a900473ffffffffffffffffffffffffffffffffffffffff1681565b6060600060075467ffffffffffffffff8111156113e1576113e06124bd565b5b60405190808252806020026020018201604052801561141a57816020015b611407612011565b8152602001906001900390816113ff5790505b50905060005b60075481101561189357600060056000838152602001908152602001600020905080604051806101800160405290816000820160009054906101000a900473ffffffffffffffffffffffffffffffffffffffff1673ffffffffffffffffffffffffffffffffffffffff1673ffffffffffffffffffffffffffffffffffffffff1681526020016001820180546114b490612d7c565b80601f01602080910402602001604051908101604052809291908181526020018280546114e090612d7c565b801561152d5780601f106115025761010080835404028352916020019161152d565b820191906000526020600020905b81548152906001019060200180831161151057829003601f168201915b5050505050815260200160028201805461154690612d7c565b80601f016020809104026020016040519081016040528092919081815260200182805461157290612d7c565b80156115bf5780601f10611594576101008083540402835291602001916115bf565b820191906000526020600020905b8154815290600101906020018083116115a257829003601f168201915b505050505081526020016003820180546115d890612d7c565b80601f016020809104026020016040519081016040528092919081815260200182805461160490612d7c565b80156116515780601f1061162657610100808354040283529160200191611651565b820191906000526020600020905b81548152906001019060200180831161163457829003601f168201915b5050505050815260200160048201548152602001600582015481526020016006820154815260200160078201805461168890612d7c565b80601f01602080910402602001604051908101604052809291908181526020018280546116b490612d7c565b80156117015780601f106116d657610100808354040283529160200191611701565b820191906000526020600020905b8154815290600101906020018083116116e457829003601f168201915b505050505081526020016008820180548060200260200160405190810160405280929190818152602001828054801561178f57602002820191906000526020600020905b8160009054906101000a900473ffffffffffffffffffffffffffffffffffffffff1673ffffffffffffffffffffffffffffffffffffffff1681526020019060010190808311611745575b50505050508152602001600982018054806020026020016040519081016040528092919081815260200182805480156117e757602002820191906000526020600020905b8154815260200190600101908083116117d3575b50505050508152602001600a820160009054906101000a900473ffffffffffffffffffffffffffffffffffffffff1673ffffffffffffffffffffffffffffffffffffffff1673ffffffffffffffffffffffffffffffffffffffff168152602001600a820160149054906101000a900460ff161515151581525050838381518110611874576118736133fe565b5b602002602001018190525050808061188b90613316565b915050611420565b508091505090565b600260009054906101000a900473ffffffffffffffffffffffffffffffffffffffff1673ffffffffffffffffffffffffffffffffffffffff163373ffffffffffffffffffffffffffffffffffffffff161461192b576040517f08c379a000000000000000000000000000000000000000000000000000000000815260040161192290613479565b60405180910390fd5b80600360006101000a81548173ffffffffffffffffffffffffffffffffffffffff021916908373ffffffffffffffffffffffffffffffffffffffff16021790555050565b60066020528060005260406000206000915054906101000a900460ff1681565b60085481565b61199d611d9f565b60006119a833611cfa565b905060006005600085815260200190815260200160002090506001151581600a0160149054906101000a900460ff16151514611a19576040517f08c379a0000000000000000000000000000000000000000000000000000000008152600401611a1090612cc1565b60405180910390fd5b42816005015411611a5f576040517f08c379a0000000000000000000000000000000000000000000000000000000008152600401611a5690612df9565b60405180910390fd5b600073ffffffffffffffffffffffffffffffffffffffff163373ffffffffffffffffffffffffffffffffffffffff1603611a9857600080fd5b8060000160009054906101000a900473ffffffffffffffffffffffffffffffffffffffff1673ffffffffffffffffffffffffffffffffffffffff163373ffffffffffffffffffffffffffffffffffffffff1614611b2a576040517f08c379a0000000000000000000000000000000000000000000000000000000008152600401611b21906134e5565b60405180910390fd5b683635c9adc5dea000008211611b75576040517f08c379a0000000000000000000000000000000000000000000000000000000008152600401611b6c906133de565b60405180910390fd5b68056bc75e2d63100000831015611bc1576040517f08c379a0000000000000000000000000000000000000000000000000000000008152600401611bb890613551565b60405180910390fd5b681b1ae4d6e2ef500000831115611c0d576040517f08c379a0000000000000000000000000000000000000000000000000000000008152600401611c04906135bd565b60405180910390fd5b611c39600360009054906101000a900473ffffffffffffffffffffffffffffffffffffffff1684611f54565b600360009054906101000a900473ffffffffffffffffffffffffffffffffffffffff1673ffffffffffffffffffffffffffffffffffffffff163373ffffffffffffffffffffffffffffffffffffffff167fdeef8639c165a81a17cd8302f07d36a1aabdf9f175e54c7b253c2e1352f2d4a685604051611cb891906120b9565b60405180910390a360016006600086815260200190815260200160002060006101000a81548160ff0219169083151502179055505050611cf6611f62565b5050565b6000600160009054906101000a900473ffffffffffffffffffffffffffffffffffffffff1673ffffffffffffffffffffffffffffffffffffffff166370a08231836040518263ffffffff1660e01b8152600401611d5791906129e2565b602060405180830381865afa158015611d74573d6000803e3d6000fd5b505050506040513d601f19601f82011682018060405250810190611d9891906135f2565b9050919050565b600260005403611de4576040517f08c379a0000000000000000000000000000000000000000000000000000000008152600401611ddb9061366b565b60405180910390fd5b6002600081905550565b600073ffffffffffffffffffffffffffffffffffffffff168573ffffffffffffffffffffffffffffffffffffffff1603611e2757600080fd5b60008414611e3457600080fd5b683635c9adc5dea000008311611e7f576040517f08c379a0000000000000000000000000000000000000000000000000000000008152600401611e76906133de565b60405180910390fd5b3373ffffffffffffffffffffffffffffffffffffffff168273ffffffffffffffffffffffffffffffffffffffff1603611eed576040517f08c379a0000000000000000000000000000000000000000000000000000000008152600401611ee4906136d7565b60405180910390fd5b6006600082815260200190815260200160002060009054906101000a900460ff16611f4d576040517f08c379a0000000000000000000000000000000000000000000000000000000008152600401611f4490613769565b60405180910390fd5b5050505050565b611f5e8282611f6c565b5050565b6001600081905550565b600160009054906101000a900473ffffffffffffffffffffffffffffffffffffffff1673ffffffffffffffffffffffffffffffffffffffff1663a9059cbb83836040518363ffffffff1660e01b8152600401611fc9929190613789565b6020604051808303816000875af1158015611fe8573d6000803e3d6000fd5b505050506040513d601f19601f8201168201806040525081019061200c91906137de565b505050565b604051806101800160405280600073ffffffffffffffffffffffffffffffffffffffff168152602001606081526020016060815260200160608152602001600081526020016000815260200160008152602001606081526020016060815260200160608152602001600073ffffffffffffffffffffffffffffffffffffffff1681526020016000151581525090565b6000819050919050565b6120b3816120a0565b82525050565b60006020820190506120ce60008301846120aa565b92915050565b6000604051905090565b600080fd5b600080fd5b6120f1816120a0565b81146120fc57600080fd5b50565b60008135905061210e816120e8565b92915050565b60006020828403121561212a576121296120de565b5b6000612138848285016120ff565b91505092915050565b600081519050919050565b600082825260208201905092915050565b6000819050602082019050919050565b600073ffffffffffffffffffffffffffffffffffffffff82169050919050565b60006121988261216d565b9050919050565b6121a88161218d565b82525050565b60006121ba838361219f565b60208301905092915050565b6000602082019050919050565b60006121de82612141565b6121e8818561214c565b93506121f38361215d565b8060005b8381101561222457815161220b88826121ae565b9750612216836121c6565b9250506001810190506121f7565b5085935050505092915050565b600081519050919050565b600082825260208201905092915050565b6000819050602082019050919050565b612266816120a0565b82525050565b6000612278838361225d565b60208301905092915050565b6000602082019050919050565b600061229c82612231565b6122a6818561223c565b93506122b18361224d565b8060005b838110156122e25781516122c9888261226c565b97506122d483612284565b9250506001810190506122b5565b5085935050505092915050565b6000604082019050818103600083015261230981856121d3565b9050818103602083015261231d8184612291565b90509392505050565b61232f8161218d565b82525050565b600081519050919050565b600082825260208201905092915050565b60005b8381101561236f578082015181840152602081019050612354565b60008484015250505050565b6000601f19601f8301169050919050565b600061239782612335565b6123a18185612340565b93506123b1818560208601612351565b6123ba8161237b565b840191505092915050565b60008115159050919050565b6123da816123c5565b82525050565b6000610140820190506123f6600083018d612326565b8181036020830152612408818c61238c565b9050818103604083015261241c818b61238c565b90508181036060830152612430818a61238c565b905061243f60808301896120aa565b61244c60a08301886120aa565b61245960c08301876120aa565b81810360e083015261246b818661238c565b905061247b610100830185612326565b6124896101208301846123d1565b9b9a5050505050505050505050565b60006020820190506124ad60008301846123d1565b92915050565b600080fd5b600080fd5b7f4e487b7100000000000000000000000000000000000000000000000000000000600052604160045260246000fd5b6124f58261237b565b810181811067ffffffffffffffff82111715612514576125136124bd565b5b80604052505050565b60006125276120d4565b905061253382826124ec565b919050565b600067ffffffffffffffff821115612553576125526124bd565b5b61255c8261237b565b9050602081019050919050565b82818337600083830152505050565b600061258b61258684612538565b61251d565b9050828152602081018484840111156125a7576125a66124b8565b5b6125b2848285612569565b509392505050565b600082601f8301126125cf576125ce6124b3565b5b81356125df848260208601612578565b91505092915050565b6125f18161218d565b81146125fc57600080fd5b50565b60008135905061260e816125e8565b92915050565b600080600080600080600060e0888a031215612633576126326120de565b5b600088013567ffffffffffffffff811115612651576126506120e3565b5b61265d8a828b016125ba565b975050602088013567ffffffffffffffff81111561267e5761267d6120e3565b5b61268a8a828b016125ba565b965050604088013567ffffffffffffffff8111156126ab576126aa6120e3565b5b6126b78a828b016125ba565b95505060606126c88a828b016120ff565b94505060806126d98a828b016120ff565b93505060a088013567ffffffffffffffff8111156126fa576126f96120e3565b5b6127068a828b016125ba565b92505060c06127178a828b016125ff565b91505092959891949750929550565b60006127318261216d565b9050919050565b61274181612726565b82525050565b600060208201905061275c6000830184612738565b92915050565b600082825260208201905092915050565b600061277e82612335565b6127888185612762565b9350612798818560208601612351565b6127a18161237b565b840191505092915050565b600082825260208201905092915050565b60006127c882612141565b6127d281856127ac565b93506127dd8361215d565b8060005b8381101561280e5781516127f588826121ae565b9750612800836121c6565b9250506001810190506127e1565b5085935050505092915050565b600082825260208201905092915050565b600061283782612231565b612841818561281b565b935061284c8361224d565b8060005b8381101561287d578151612864888261226c565b975061286f83612284565b925050600181019050612850565b5085935050505092915050565b612893816123c5565b82525050565b6000610180830160008301516128b2600086018261219f565b50602083015184820360208601526128ca8282612773565b915050604083015184820360408601526128e48282612773565b915050606083015184820360608601526128fe8282612773565b9150506080830151612913608086018261225d565b5060a083015161292660a086018261225d565b5060c083015161293960c086018261225d565b5060e083015184820360e08601526129518282612773565b91505061010083015184820361010086015261296d82826127bd565b915050610120830151848203610120860152612989828261282c565b9150506101408301516129a061014086018261219f565b506101608301516129b561016086018261288a565b508091505092915050565b600060208201905081810360008301526129da8184612899565b905092915050565b60006020820190506129f76000830184612326565b92915050565b600081519050919050565b600082825260208201905092915050565b6000819050602082019050919050565b600061018083016000830151612a42600086018261219f565b5060208301518482036020860152612a5a8282612773565b91505060408301518482036040860152612a748282612773565b91505060608301518482036060860152612a8e8282612773565b9150506080830151612aa3608086018261225d565b5060a0830151612ab660a086018261225d565b5060c0830151612ac960c086018261225d565b5060e083015184820360e0860152612ae18282612773565b915050610100830151848203610100860152612afd82826127bd565b915050610120830151848203610120860152612b19828261282c565b915050610140830151612b3061014086018261219f565b50610160830151612b4561016086018261288a565b508091505092915050565b6000612b5c8383612a29565b905092915050565b6000602082019050919050565b6000612b7c826129fd565b612b868185612a08565b935083602082028501612b9885612a19565b8060005b85811015612bd45784840389528151612bb58582612b50565b9450612bc083612b64565b925060208a01995050600181019050612b9c565b50829750879550505050505092915050565b60006020820190508181036000830152612c008184612b71565b905092915050565b600060208284031215612c1e57612c1d6120de565b5b6000612c2c848285016125ff565b91505092915050565b60008060408385031215612c4c57612c4b6120de565b5b6000612c5a858286016120ff565b9250506020612c6b858286016120ff565b9150509250929050565b7f50726f6a656374206d697373696e670000000000000000000000000000000000600082015250565b6000612cab600f83612340565b9150612cb682612c75565b602082019050919050565b60006020820190508181036000830152612cda81612c9e565b9050919050565b7f596f75206d757374206e65656420746f20627579204752415600000000000000600082015250565b6000612d17601983612340565b9150612d2282612ce1565b602082019050919050565b60006020820190508181036000830152612d4681612d0a565b9050919050565b7f4e487b7100000000000000000000000000000000000000000000000000000000600052602260045260246000fd5b60006002820490506001821680612d9457607f821691505b602082108103612da757612da6612d4d565b5b50919050565b7f566f74696e67206f76657220796f752063616e206372656174652061206e6577600082015250565b6000612de3602083612340565b9150612dee82612dad565b602082019050919050565b60006020820190508181036000830152612e1281612dd6565b9050919050565b7f4e487b7100000000000000000000000000000000000000000000000000000000600052601160045260246000fd5b6000612e53826120a0565b9150612e5e836120a0565b9250828201905080821115612e7657612e75612e19565b5b92915050565b7f4d696e696e756d20766f69636520313030204752417600000000000000000000600082015250565b6000612eb2601683612340565b9150612ebd82612e7c565b602082019050919050565b60006020820190508181036000830152612ee181612ea5565b9050919050565b7f4d6178696d756d20766f69636520353030204752417600000000000000000000600082015250565b6000612f1e601683612340565b9150612f2982612ee8565b602082019050919050565b60006020820190508181036000830152612f4d81612f11565b9050919050565b7f436865636b20796f7520646561646c696e650000000000000000000000000000600082015250565b6000612f8a601283612340565b9150612f9582612f54565b602082019050919050565b60006020820190508181036000830152612fb981612f7d565b9050919050565b7f5469746c6520697320736f206c6f6e6700000000000000000000000000000000600082015250565b6000612ff6601083612340565b915061300182612fc0565b602082019050919050565b6000602082019050818103600083015261302581612fe9565b9050919050565b7f4465736372697074696f6e20697320736f206c6f6e6700000000000000000000600082015250565b6000613062601683612340565b915061306d8261302c565b602082019050919050565b6000602082019050818103600083015261309181613055565b9050919050565b60008190508160005260206000209050919050565b60006020601f8301049050919050565b600082821b905092915050565b6000600883026130fa7fffffffffffffffffffffffffffffffffffffffffffffffffffffffffffffffff826130bd565b61310486836130bd565b95508019841693508086168417925050509392505050565b6000819050919050565b600061314161313c613137846120a0565b61311c565b6120a0565b9050919050565b6000819050919050565b61315b83613126565b61316f61316782613148565b8484546130ca565b825550505050565b600090565b613184613177565b61318f818484613152565b505050565b5b818110156131b3576131a860008261317c565b600181019050613195565b5050565b601f8211156131f8576131c981613098565b6131d2846130ad565b810160208510156131e1578190505b6131f56131ed856130ad565b830182613194565b50505b505050565b600082821c905092915050565b600061321b600019846008026131fd565b1980831691505092915050565b6000613234838361320a565b9150826002028217905092915050565b61324d82612335565b67ffffffffffffffff811115613266576132656124bd565b5b6132708254612d7c565b61327b8282856131b7565b600060209050601f8311600181146132ae576000841561329c578287015190505b6132a68582613228565b86555061330e565b601f1984166132bc86613098565b60005b828110156132e4578489015182556001820191506020850194506020810190506132bf565b8683101561330157848901516132fd601f89168261320a565b8355505b6001600288020188555050505b505050505050565b6000613321826120a0565b91507fffffffffffffffffffffffffffffffffffffffffffffffffffffffffffffffff820361335357613352612e19565b5b600182019050919050565b6000613369826120a0565b9150613374836120a0565b925082820390508181111561338c5761338b612e19565b5b92915050565b7f496e73756666696369656e742047524156000000000000000000000000000000600082015250565b60006133c8601183612340565b91506133d382613392565b602082019050919050565b600060208201905081810360008301526133f7816133bb565b9050919050565b7f4e487b7100000000000000000000000000000000000000000000000000000000600052603260045260246000fd5b7f6f776e6572206f6e6c7900000000000000000000000000000000000000000000600082015250565b6000613463600a83612340565b915061346e8261342d565b602082019050919050565b6000602082019050818103600083015261349281613456565b9050919050565b7f5075626c69636174696f6e206f776e6572206f6e6c7900000000000000000000600082015250565b60006134cf601683612340565b91506134da82613499565b602082019050919050565b600060208201905081810360008301526134fe816134c2565b9050919050565b7f4d696e696d756d20766f74696e67000000000000000000000000000000000000600082015250565b600061353b600e83612340565b915061354682613505565b602082019050919050565b6000602082019050818103600083015261356a8161352e565b9050919050565b7f4d6178696d756d20766f74696e67000000000000000000000000000000000000600082015250565b60006135a7600e83612340565b91506135b282613571565b602082019050919050565b600060208201905081810360008301526135d68161359a565b9050919050565b6000815190506135ec816120e8565b92915050565b600060208284031215613608576136076120de565b5b6000613616848285016135dd565b91505092915050565b7f5265656e7472616e637947756172643a207265656e7472616e742063616c6c00600082015250565b6000613655601f83612340565b91506136608261361f565b602082019050919050565b6000602082019050818103600083015261368481613648565b9050919050565b7f4f776e65722063616e607420766f74696e670000000000000000000000000000600082015250565b60006136c1601283612340565b91506136cc8261368b565b602082019050919050565b600060208201905081810360008301526136f0816136b4565b9050919050565b7f506c656173652070726f7669646520612070726f6a656374206e756d6265722060008201527f696e20737570706f727400000000000000000000000000000000000000000000602082015250565b6000613753602a83612340565b915061375e826136f7565b604082019050919050565b6000602082019050818103600083015261378281613746565b9050919050565b600060408201905061379e6000830185612326565b6137ab60208301846120aa565b9392505050565b6137bb816123c5565b81146137c657600080fd5b50565b6000815190506137d8816137b2565b92915050565b6000602082840312156137f4576137f36120de565b5b6000613802848285016137c9565b9150509291505056fea2646970667358221220e0549e23943bbbb7015dbd513dfa0ee08c9b29215bd14235e768eb42e1cabba464736f6c63430008130033",
  "linkReferences": {},
  "deployedLinkReferences": {}
}