{
  "_format": "hh-sol-artifact-1",
  "contractName": "Crowdfunding",
  "sourceName": "contracts/Crowdfunding.sol",
  "abi": [
    {
      "inputs": [
        {
          "internalType": "contract IERC20",
          "name": "token",
          "type": "address"
        },
        {
          "internalType": "uint256",
          "name": "_tokenAmount",
          "type": "uint256"
        },
        {
          "internalType": "address payable",
          "name": "_wallet",
          "type": "address"
        }
      ],
      "stateMutability": "nonpayable",
      "type": "constructor"
    },
    {
      "anonymous": false,
      "inputs": [
        {
          "indexed": true,
          "internalType": "address",
          "name": "purchaser",
          "type": "address"
        },
        {
          "indexed": true,
          "internalType": "address",
          "name": "beneficiary",
          "type": "address"
        },
        {
          "indexed": false,
          "internalType": "uint256",
          "name": "amount",
          "type": "uint256"
        }
      ],
      "name": "TokenDonate",
      "type": "event"
    },
    {
      "inputs": [],
      "name": "_crowdfunding",
      "outputs": [
        {
          "internalType": "address",
          "name": "",
          "type": "address"
        }
      ],
      "stateMutability": "view",
      "type": "function"
    },
    {
      "inputs": [],
      "name": "_getTokenAmount",
      "outputs": [
        {
          "internalType": "uint256",
          "name": "",
          "type": "uint256"
        }
      ],
      "stateMutability": "view",
      "type": "function"
    },
    {
      "inputs": [
        {
          "internalType": "uint256",
          "name": "",
          "type": "uint256"
        }
      ],
      "name": "campaigns",
      "outputs": [
        {
          "internalType": "address",
          "name": "owner",
          "type": "address"
        },
        {
          "internalType": "string",
          "name": "title",
          "type": "string"
        },
        {
          "internalType": "string",
          "name": "url",
          "type": "string"
        },
        {
          "internalType": "string",
          "name": "description",
          "type": "string"
        },
        {
          "internalType": "uint256",
          "name": "target",
          "type": "uint256"
        },
        {
          "internalType": "uint256",
          "name": "deadline",
          "type": "uint256"
        },
        {
          "internalType": "uint256",
          "name": "amountCollected",
          "type": "uint256"
        },
        {
          "internalType": "string",
          "name": "image",
          "type": "string"
        },
        {
          "internalType": "address",
          "name": "invited",
          "type": "address"
        },
        {
          "internalType": "bool",
          "name": "exists",
          "type": "bool"
        }
      ],
      "stateMutability": "view",
      "type": "function"
    },
    {
      "inputs": [
        {
          "internalType": "string",
          "name": "_title",
          "type": "string"
        },
        {
          "internalType": "string",
          "name": "_url",
          "type": "string"
        },
        {
          "internalType": "string",
          "name": "_description",
          "type": "string"
        },
        {
          "internalType": "uint256",
          "name": "_target",
          "type": "uint256"
        },
        {
          "internalType": "uint256",
          "name": "_deadline",
          "type": "uint256"
        },
        {
          "internalType": "string",
          "name": "_image",
          "type": "string"
        },
        {
          "internalType": "address",
          "name": "_invited",
          "type": "address"
        }
      ],
      "name": "createCampaign",
      "outputs": [
        {
          "internalType": "uint256",
          "name": "",
          "type": "uint256"
        }
      ],
      "stateMutability": "nonpayable",
      "type": "function"
    },
    {
      "inputs": [
        {
          "internalType": "uint256",
          "name": "_id",
          "type": "uint256"
        }
      ],
      "name": "donateToCampaign",
      "outputs": [],
      "stateMutability": "payable",
      "type": "function"
    },
    {
      "inputs": [
        {
          "internalType": "uint256",
          "name": "_id",
          "type": "uint256"
        }
      ],
      "name": "getCampaign",
      "outputs": [
        {
          "components": [
            {
              "internalType": "address",
              "name": "owner",
              "type": "address"
            },
            {
              "internalType": "string",
              "name": "title",
              "type": "string"
            },
            {
              "internalType": "string",
              "name": "url",
              "type": "string"
            },
            {
              "internalType": "string",
              "name": "description",
              "type": "string"
            },
            {
              "internalType": "uint256",
              "name": "target",
              "type": "uint256"
            },
            {
              "internalType": "uint256",
              "name": "deadline",
              "type": "uint256"
            },
            {
              "internalType": "uint256",
              "name": "amountCollected",
              "type": "uint256"
            },
            {
              "internalType": "string",
              "name": "image",
              "type": "string"
            },
            {
              "internalType": "address[]",
              "name": "donators",
              "type": "address[]"
            },
            {
              "internalType": "uint256[]",
              "name": "donations",
              "type": "uint256[]"
            },
            {
              "internalType": "address",
              "name": "invited",
              "type": "address"
            },
            {
              "internalType": "bool",
              "name": "exists",
              "type": "bool"
            }
          ],
          "internalType": "struct Crowdfunding.Campaign",
          "name": "",
          "type": "tuple"
        }
      ],
      "stateMutability": "view",
      "type": "function"
    },
    {
      "inputs": [],
      "name": "getCampaigns",
      "outputs": [
        {
          "components": [
            {
              "internalType": "address",
              "name": "owner",
              "type": "address"
            },
            {
              "internalType": "string",
              "name": "title",
              "type": "string"
            },
            {
              "internalType": "string",
              "name": "url",
              "type": "string"
            },
            {
              "internalType": "string",
              "name": "description",
              "type": "string"
            },
            {
              "internalType": "uint256",
              "name": "target",
              "type": "uint256"
            },
            {
              "internalType": "uint256",
              "name": "deadline",
              "type": "uint256"
            },
            {
              "internalType": "uint256",
              "name": "amountCollected",
              "type": "uint256"
            },
            {
              "internalType": "string",
              "name": "image",
              "type": "string"
            },
            {
              "internalType": "address[]",
              "name": "donators",
              "type": "address[]"
            },
            {
              "internalType": "uint256[]",
              "name": "donations",
              "type": "uint256[]"
            },
            {
              "internalType": "address",
              "name": "invited",
              "type": "address"
            },
            {
              "internalType": "bool",
              "name": "exists",
              "type": "bool"
            }
          ],
          "internalType": "struct Crowdfunding.Campaign[]",
          "name": "",
          "type": "tuple[]"
        }
      ],
      "stateMutability": "view",
      "type": "function"
    },
    {
      "inputs": [
        {
          "internalType": "uint256",
          "name": "_id",
          "type": "uint256"
        }
      ],
      "name": "getDonators",
      "outputs": [
        {
          "internalType": "address[]",
          "name": "",
          "type": "address[]"
        },
        {
          "internalType": "uint256[]",
          "name": "",
          "type": "uint256[]"
        }
      ],
      "stateMutability": "view",
      "type": "function"
    },
    {
      "inputs": [
        {
          "internalType": "uint256",
          "name": "_id",
          "type": "uint256"
        }
      ],
      "name": "getVoting",
      "outputs": [
        {
          "internalType": "bool",
          "name": "",
          "type": "bool"
        }
      ],
      "stateMutability": "view",
      "type": "function"
    },
    {
      "inputs": [],
      "name": "numberOfCampaigns",
      "outputs": [
        {
          "internalType": "uint256",
          "name": "",
          "type": "uint256"
        }
      ],
      "stateMutability": "view",
      "type": "function"
    },
    {
      "inputs": [
        {
          "internalType": "address",
          "name": "_crowdfund",
          "type": "address"
        }
      ],
      "name": "setCrowdfundingAddress",
      "outputs": [],
      "stateMutability": "nonpayable",
      "type": "function"
    },
    {
      "inputs": [
        {
          "internalType": "uint256",
          "name": "_id",
          "type": "uint256"
        },
        {
          "internalType": "uint256",
          "name": "_amount",
          "type": "uint256"
        }
      ],
      "name": "setVoting",
      "outputs": [],
      "stateMutability": "payable",
      "type": "function"
    },
    {
      "inputs": [],
      "name": "tokenAmount",
      "outputs": [
        {
          "internalType": "uint256",
          "name": "",
          "type": "uint256"
        }
      ],
      "stateMutability": "view",
      "type": "function"
    },
    {
      "inputs": [
        {
          "internalType": "uint256",
          "name": "",
          "type": "uint256"
        }
      ],
      "name": "votingsCampaigns",
      "outputs": [
        {
          "internalType": "bool",
          "name": "",
          "type": "bool"
        }
      ],
      "stateMutability": "view",
      "type": "function"
    },
    {
      "inputs": [],
      "name": "wallet",
      "outputs": [
        {
          "internalType": "address payable",
          "name": "",
          "type": "address"
        }
      ],
      "stateMutability": "view",
      "type": "function"
    }
  ],
  "bytecode": "0x608060405260006007553480156200001657600080fd5b5060405162003b2d38038062003b2d83398181016040528101906200003c919062000264565b6001600081905550600073ffffffffffffffffffffffffffffffffffffffff168173ffffffffffffffffffffffffffffffffffffffff16036200007e57600080fd5b82600160006101000a81548173ffffffffffffffffffffffffffffffffffffffff021916908373ffffffffffffffffffffffffffffffffffffffff160217905550670de0b6b3a764000082620000d59190620002ef565b60088190555033600260006101000a81548173ffffffffffffffffffffffffffffffffffffffff021916908373ffffffffffffffffffffffffffffffffffffffff16021790555080600460006101000a81548173ffffffffffffffffffffffffffffffffffffffff021916908373ffffffffffffffffffffffffffffffffffffffff1602179055505050506200033a565b600080fd5b600073ffffffffffffffffffffffffffffffffffffffff82169050919050565b600062000198826200016b565b9050919050565b6000620001ac826200018b565b9050919050565b620001be816200019f565b8114620001ca57600080fd5b50565b600081519050620001de81620001b3565b92915050565b6000819050919050565b620001f981620001e4565b81146200020557600080fd5b50565b6000815190506200021981620001ee565b92915050565b60006200022c826200016b565b9050919050565b6200023e816200021f565b81146200024a57600080fd5b50565b6000815190506200025e8162000233565b92915050565b60008060006060848603121562000280576200027f62000166565b5b60006200029086828701620001cd565b9350506020620002a38682870162000208565b9250506040620002b6868287016200024d565b9150509250925092565b7f4e487b7100000000000000000000000000000000000000000000000000000000600052601160045260246000fd5b6000620002fc82620001e4565b91506200030983620001e4565b92508282026200031981620001e4565b91508282048414831517620003335762000332620002c0565b5b5092915050565b6137e3806200034a6000396000f3fe6080604052600436106100e85760003560e01c80635598f8cc1161008a578063a85b6f9a11610059578063a85b6f9a1461031b578063d79abcd714610344578063eec7faa114610381578063fb8cbe7e146103ac576100e8565b80635598f8cc1461025d5780635ed4d7ae1461029a57806383b322f8146102c5578063a6b03633146102f0576100e8565b80633afc7282116100c65780633afc72821461019c57806342a4fda8146101d95780634c1fb753146101f5578063521eb27314610232576100e8565b806307ca140d146100ed5780630fa91fa914610118578063141961bc14610156575b600080fd5b3480156100f957600080fd5b506101026103c8565b60405161010f91906120c7565b60405180910390f35b34801561012457600080fd5b5061013f600480360381019061013a9190612122565b6103ce565b60405161014d9291906122fd565b60405180910390f35b34801561016257600080fd5b5061017d60048036038101906101789190612122565b6105a3565b6040516101939a999897969594939291906123ee565b60405180910390f35b3480156101a857600080fd5b506101c360048036038101906101be9190612122565b610864565b6040516101d091906124a6565b60405180910390f35b6101f360048036038101906101ee9190612122565b61088e565b005b34801561020157600080fd5b5061021c60048036038101906102179190612622565b610b51565b60405161022991906120c7565b60405180910390f35b34801561023e57600080fd5b50610247610e2d565b6040516102549190612755565b60405180910390f35b34801561026957600080fd5b50610284600480360381019061027f9190612122565b610e53565b60405161029191906129ce565b60405180910390f35b3480156102a657600080fd5b506102af611345565b6040516102bc91906120c7565b60405180910390f35b3480156102d157600080fd5b506102da61134f565b6040516102e791906129f0565b60405180910390f35b3480156102fc57600080fd5b50610305611375565b6040516103129190612bf4565b60405180910390f35b34801561032757600080fd5b50610342600480360381019061033d9190612c16565b61184f565b005b34801561035057600080fd5b5061036b60048036038101906103669190612122565b61197d565b60405161037891906124a6565b60405180910390f35b34801561038d57600080fd5b5061039661199d565b6040516103a391906120c7565b60405180910390f35b6103c660048036038101906103c19190612c43565b6119a3565b005b60075481565b60608060006005600085815260200190815260200160002090506001151581600a0160149054906101000a900460ff16151514610440576040517f08c379a000000000000000000000000000000000000000000000000000000000815260040161043790612ccf565b60405180910390fd5b683635c9adc5dea0000061045333611d08565b11610493576040517f08c379a000000000000000000000000000000000000000000000000000000000815260040161048a90612d3b565b60405180910390fd5b60056000858152602001908152602001600020600801600560008681526020019081526020016000206009018180548060200260200160405190810160405280929190818152602001828054801561054057602002820191906000526020600020905b8160009054906101000a900473ffffffffffffffffffffffffffffffffffffffff1673ffffffffffffffffffffffffffffffffffffffff16815260200190600101908083116104f6575b505050505091508080548060200260200160405190810160405280929190818152602001828054801561059257602002820191906000526020600020905b81548152602001906001019080831161057e575b505050505090509250925050915091565b60056020528060005260406000206000915090508060000160009054906101000a900473ffffffffffffffffffffffffffffffffffffffff16908060010180546105ec90612d8a565b80601f016020809104026020016040519081016040528092919081815260200182805461061890612d8a565b80156106655780601f1061063a57610100808354040283529160200191610665565b820191906000526020600020905b81548152906001019060200180831161064857829003601f168201915b50505050509080600201805461067a90612d8a565b80601f01602080910402602001604051908101604052809291908181526020018280546106a690612d8a565b80156106f35780601f106106c8576101008083540402835291602001916106f3565b820191906000526020600020905b8154815290600101906020018083116106d657829003601f168201915b50505050509080600301805461070890612d8a565b80601f016020809104026020016040519081016040528092919081815260200182805461073490612d8a565b80156107815780601f1061075657610100808354040283529160200191610781565b820191906000526020600020905b81548152906001019060200180831161076457829003601f168201915b5050505050908060040154908060050154908060060154908060070180546107a890612d8a565b80601f01602080910402602001604051908101604052809291908181526020018280546107d490612d8a565b80156108215780601f106107f657610100808354040283529160200191610821565b820191906000526020600020905b81548152906001019060200180831161080457829003601f168201915b50505050509080600a0160009054906101000a900473ffffffffffffffffffffffffffffffffffffffff169080600a0160149054906101000a900460ff1690508a565b60006006600083815260200190815260200160002060009054906101000a900460ff169050919050565b610896611dad565b60006108a133611d08565b90506000600560008481526020019081526020016000209050683635c9adc5dea000006108cd33611d08565b1161090d576040517f08c379a000000000000000000000000000000000000000000000000000000000815260040161090490612d3b565b60405180910390fd5b6001151581600a0160149054906101000a900460ff16151514610965576040517f08c379a000000000000000000000000000000000000000000000000000000000815260040161095c90612ccf565b60405180910390fd5b428160050154116109ab576040517f08c379a00000000000000000000000000000000000000000000000000000000081526004016109a290612e07565b60405180910390fd5b6109dd336000848460000160009054906101000a900473ffffffffffffffffffffffffffffffffffffffff1687611dfc565b610a0d8160000160009054906101000a900473ffffffffffffffffffffffffffffffffffffffff16600854611f62565b8060000160009054906101000a900473ffffffffffffffffffffffffffffffffffffffff1673ffffffffffffffffffffffffffffffffffffffff163373ffffffffffffffffffffffffffffffffffffffff167fdeef8639c165a81a17cd8302f07d36a1aabdf9f175e54c7b253c2e1352f2d4a6600854604051610a9091906120c7565b60405180910390a380600801339080600181540180825580915050600190039060005260206000200160009091909190916101000a81548173ffffffffffffffffffffffffffffffffffffffff021916908373ffffffffffffffffffffffffffffffffffffffff1602179055508060090160085490806001815401808255809150506001900390600052602060002001600090919091909150556008548160060154610b3c9190612e56565b81600601819055505050610b4e611f70565b50565b6000610b5b611dad565b60008851905060008751905068056bc75e2d63100000871015610bb3576040517f08c379a0000000000000000000000000000000000000000000000000000000008152600401610baa90612ed6565b60405180910390fd5b428611610bf5576040517f08c379a0000000000000000000000000000000000000000000000000000000008152600401610bec90612f42565b60405180910390fd5b683635c9adc5dea00000610c0833611d08565b11610c48576040517f08c379a0000000000000000000000000000000000000000000000000000000008152600401610c3f90612d3b565b60405180910390fd5b60328210610c8b576040517f08c379a0000000000000000000000000000000000000000000000000000000008152600401610c8290612fae565b60405180910390fd5b60c88110610cce576040517f08c379a0000000000000000000000000000000000000000000000000000000008152600401610cc59061301a565b60405180910390fd5b60006005600060075481526020019081526020016000209050338160000160006101000a81548173ffffffffffffffffffffffffffffffffffffffff021916908373ffffffffffffffffffffffffffffffffffffffff1602179055508a816001019081610d3b91906131e6565b5089816002019081610d4d91906131e6565b5088816003019081610d5f91906131e6565b508781600401819055508681600501819055506000816006018190555085816007019081610d8d91906131e6565b508481600a0160006101000a81548173ffffffffffffffffffffffffffffffffffffffff021916908373ffffffffffffffffffffffffffffffffffffffff160217905550600181600a0160146101000a81548160ff02191690831515021790555060076000815480929190610e01906132b8565b91905055506001600754610e159190613300565b9350505050610e22611f70565b979650505050505050565b600460009054906101000a900473ffffffffffffffffffffffffffffffffffffffff1681565b610e5b61201f565b683635c9adc5dea00000610e6e33611d08565b11610eae576040517f08c379a0000000000000000000000000000000000000000000000000000000008152600401610ea590613380565b60405180910390fd5b60006005600084815260200190815260200160002090506001151581600a0160149054906101000a900460ff16151514610f1d576040517f08c379a0000000000000000000000000000000000000000000000000000000008152600401610f1490612ccf565b60405180910390fd5b80604051806101800160405290816000820160009054906101000a900473ffffffffffffffffffffffffffffffffffffffff1673ffffffffffffffffffffffffffffffffffffffff1673ffffffffffffffffffffffffffffffffffffffff168152602001600182018054610f9090612d8a565b80601f0160208091040260200160405190810160405280929190818152602001828054610fbc90612d8a565b80156110095780601f10610fde57610100808354040283529160200191611009565b820191906000526020600020905b815481529060010190602001808311610fec57829003601f168201915b5050505050815260200160028201805461102290612d8a565b80601f016020809104026020016040519081016040528092919081815260200182805461104e90612d8a565b801561109b5780601f106110705761010080835404028352916020019161109b565b820191906000526020600020905b81548152906001019060200180831161107e57829003601f168201915b505050505081526020016003820180546110b490612d8a565b80601f01602080910402602001604051908101604052809291908181526020018280546110e090612d8a565b801561112d5780601f106111025761010080835404028352916020019161112d565b820191906000526020600020905b81548152906001019060200180831161111057829003601f168201915b5050505050815260200160048201548152602001600582015481526020016006820154815260200160078201805461116490612d8a565b80601f016020809104026020016040519081016040528092919081815260200182805461119090612d8a565b80156111dd5780601f106111b2576101008083540402835291602001916111dd565b820191906000526020600020905b8154815290600101906020018083116111c057829003601f168201915b505050505081526020016008820180548060200260200160405190810160405280929190818152602001828054801561126b57602002820191906000526020600020905b8160009054906101000a900473ffffffffffffffffffffffffffffffffffffffff1673ffffffffffffffffffffffffffffffffffffffff1681526020019060010190808311611221575b50505050508152602001600982018054806020026020016040519081016040528092919081815260200182805480156112c357602002820191906000526020600020905b8154815260200190600101908083116112af575b50505050508152602001600a820160009054906101000a900473ffffffffffffffffffffffffffffffffffffffff1673ffffffffffffffffffffffffffffffffffffffff1673ffffffffffffffffffffffffffffffffffffffff168152602001600a820160149054906101000a900460ff161515151581525050915050919050565b6000600854905090565b600360009054906101000a900473ffffffffffffffffffffffffffffffffffffffff1681565b6060600060075467ffffffffffffffff811115611395576113946124cb565b5b6040519080825280602002602001820160405280156113ce57816020015b6113bb61201f565b8152602001906001900390816113b35790505b50905060005b60075481101561184757600060056000838152602001908152602001600020905080604051806101800160405290816000820160009054906101000a900473ffffffffffffffffffffffffffffffffffffffff1673ffffffffffffffffffffffffffffffffffffffff1673ffffffffffffffffffffffffffffffffffffffff16815260200160018201805461146890612d8a565b80601f016020809104026020016040519081016040528092919081815260200182805461149490612d8a565b80156114e15780601f106114b6576101008083540402835291602001916114e1565b820191906000526020600020905b8154815290600101906020018083116114c457829003601f168201915b505050505081526020016002820180546114fa90612d8a565b80601f016020809104026020016040519081016040528092919081815260200182805461152690612d8a565b80156115735780601f1061154857610100808354040283529160200191611573565b820191906000526020600020905b81548152906001019060200180831161155657829003601f168201915b5050505050815260200160038201805461158c90612d8a565b80601f01602080910402602001604051908101604052809291908181526020018280546115b890612d8a565b80156116055780601f106115da57610100808354040283529160200191611605565b820191906000526020600020905b8154815290600101906020018083116115e857829003601f168201915b5050505050815260200160048201548152602001600582015481526020016006820154815260200160078201805461163c90612d8a565b80601f016020809104026020016040519081016040528092919081815260200182805461166890612d8a565b80156116b55780601f1061168a576101008083540402835291602001916116b5565b820191906000526020600020905b81548152906001019060200180831161169857829003601f168201915b505050505081526020016008820180548060200260200160405190810160405280929190818152602001828054801561174357602002820191906000526020600020905b8160009054906101000a900473ffffffffffffffffffffffffffffffffffffffff1673ffffffffffffffffffffffffffffffffffffffff16815260200190600101908083116116f9575b505050505081526020016009820180548060200260200160405190810160405280929190818152602001828054801561179b57602002820191906000526020600020905b815481526020019060010190808311611787575b50505050508152602001600a820160009054906101000a900473ffffffffffffffffffffffffffffffffffffffff1673ffffffffffffffffffffffffffffffffffffffff1673ffffffffffffffffffffffffffffffffffffffff168152602001600a820160149054906101000a900460ff161515151581525050838381518110611828576118276133a0565b5b602002602001018190525050808061183f906132b8565b9150506113d4565b508091505090565b600260009054906101000a900473ffffffffffffffffffffffffffffffffffffffff1673ffffffffffffffffffffffffffffffffffffffff163373ffffffffffffffffffffffffffffffffffffffff16146118a957600080fd5b600260009054906101000a900473ffffffffffffffffffffffffffffffffffffffff1673ffffffffffffffffffffffffffffffffffffffff163373ffffffffffffffffffffffffffffffffffffffff1614611939576040517f08c379a00000000000000000000000000000000000000000000000000000000081526004016119309061341b565b60405180910390fd5b80600360006101000a81548173ffffffffffffffffffffffffffffffffffffffff021916908373ffffffffffffffffffffffffffffffffffffffff16021790555050565b60066020528060005260406000206000915054906101000a900460ff1681565b60085481565b6119ab611dad565b60006119b633611d08565b905060006005600085815260200190815260200160002090506001151581600a0160149054906101000a900460ff16151514611a27576040517f08c379a0000000000000000000000000000000000000000000000000000000008152600401611a1e90612ccf565b60405180910390fd5b42816005015411611a6d576040517f08c379a0000000000000000000000000000000000000000000000000000000008152600401611a6490612e07565b60405180910390fd5b600073ffffffffffffffffffffffffffffffffffffffff163373ffffffffffffffffffffffffffffffffffffffff1603611aa657600080fd5b8060000160009054906101000a900473ffffffffffffffffffffffffffffffffffffffff1673ffffffffffffffffffffffffffffffffffffffff163373ffffffffffffffffffffffffffffffffffffffff1614611b38576040517f08c379a0000000000000000000000000000000000000000000000000000000008152600401611b2f90613487565b60405180910390fd5b683635c9adc5dea000008211611b83576040517f08c379a0000000000000000000000000000000000000000000000000000000008152600401611b7a90613380565b60405180910390fd5b68056bc75e2d63100000831015611bcf576040517f08c379a0000000000000000000000000000000000000000000000000000000008152600401611bc6906134f3565b60405180910390fd5b681b1ae4d6e2ef500000831115611c1b576040517f08c379a0000000000000000000000000000000000000000000000000000000008152600401611c129061355f565b60405180910390fd5b611c47600360009054906101000a900473ffffffffffffffffffffffffffffffffffffffff1684611f62565b600360009054906101000a900473ffffffffffffffffffffffffffffffffffffffff1673ffffffffffffffffffffffffffffffffffffffff163373ffffffffffffffffffffffffffffffffffffffff167fdeef8639c165a81a17cd8302f07d36a1aabdf9f175e54c7b253c2e1352f2d4a685604051611cc691906120c7565b60405180910390a360016006600086815260200190815260200160002060006101000a81548160ff0219169083151502179055505050611d04611f70565b5050565b6000600160009054906101000a900473ffffffffffffffffffffffffffffffffffffffff1673ffffffffffffffffffffffffffffffffffffffff166370a08231836040518263ffffffff1660e01b8152600401611d6591906129f0565b602060405180830381865afa158015611d82573d6000803e3d6000fd5b505050506040513d601f19601f82011682018060405250810190611da69190613594565b9050919050565b600260005403611df2576040517f08c379a0000000000000000000000000000000000000000000000000000000008152600401611de99061360d565b60405180910390fd5b6002600081905550565b600073ffffffffffffffffffffffffffffffffffffffff168573ffffffffffffffffffffffffffffffffffffffff1603611e3557600080fd5b60008414611e4257600080fd5b683635c9adc5dea000008311611e8d576040517f08c379a0000000000000000000000000000000000000000000000000000000008152600401611e8490613380565b60405180910390fd5b3373ffffffffffffffffffffffffffffffffffffffff168273ffffffffffffffffffffffffffffffffffffffff1603611efb576040517f08c379a0000000000000000000000000000000000000000000000000000000008152600401611ef290613679565b60405180910390fd5b6006600082815260200190815260200160002060009054906101000a900460ff16611f5b576040517f08c379a0000000000000000000000000000000000000000000000000000000008152600401611f529061370b565b60405180910390fd5b5050505050565b611f6c8282611f7a565b5050565b6001600081905550565b600160009054906101000a900473ffffffffffffffffffffffffffffffffffffffff1673ffffffffffffffffffffffffffffffffffffffff1663a9059cbb83836040518363ffffffff1660e01b8152600401611fd792919061372b565b6020604051808303816000875af1158015611ff6573d6000803e3d6000fd5b505050506040513d601f19601f8201168201806040525081019061201a9190613780565b505050565b604051806101800160405280600073ffffffffffffffffffffffffffffffffffffffff168152602001606081526020016060815260200160608152602001600081526020016000815260200160008152602001606081526020016060815260200160608152602001600073ffffffffffffffffffffffffffffffffffffffff1681526020016000151581525090565b6000819050919050565b6120c1816120ae565b82525050565b60006020820190506120dc60008301846120b8565b92915050565b6000604051905090565b600080fd5b600080fd5b6120ff816120ae565b811461210a57600080fd5b50565b60008135905061211c816120f6565b92915050565b600060208284031215612138576121376120ec565b5b60006121468482850161210d565b91505092915050565b600081519050919050565b600082825260208201905092915050565b6000819050602082019050919050565b600073ffffffffffffffffffffffffffffffffffffffff82169050919050565b60006121a68261217b565b9050919050565b6121b68161219b565b82525050565b60006121c883836121ad565b60208301905092915050565b6000602082019050919050565b60006121ec8261214f565b6121f6818561215a565b93506122018361216b565b8060005b8381101561223257815161221988826121bc565b9750612224836121d4565b925050600181019050612205565b5085935050505092915050565b600081519050919050565b600082825260208201905092915050565b6000819050602082019050919050565b612274816120ae565b82525050565b6000612286838361226b565b60208301905092915050565b6000602082019050919050565b60006122aa8261223f565b6122b4818561224a565b93506122bf8361225b565b8060005b838110156122f05781516122d7888261227a565b97506122e283612292565b9250506001810190506122c3565b5085935050505092915050565b6000604082019050818103600083015261231781856121e1565b9050818103602083015261232b818461229f565b90509392505050565b61233d8161219b565b82525050565b600081519050919050565b600082825260208201905092915050565b60005b8381101561237d578082015181840152602081019050612362565b60008484015250505050565b6000601f19601f8301169050919050565b60006123a582612343565b6123af818561234e565b93506123bf81856020860161235f565b6123c881612389565b840191505092915050565b60008115159050919050565b6123e8816123d3565b82525050565b600061014082019050612404600083018d612334565b8181036020830152612416818c61239a565b9050818103604083015261242a818b61239a565b9050818103606083015261243e818a61239a565b905061244d60808301896120b8565b61245a60a08301886120b8565b61246760c08301876120b8565b81810360e0830152612479818661239a565b9050612489610100830185612334565b6124976101208301846123df565b9b9a5050505050505050505050565b60006020820190506124bb60008301846123df565b92915050565b600080fd5b600080fd5b7f4e487b7100000000000000000000000000000000000000000000000000000000600052604160045260246000fd5b61250382612389565b810181811067ffffffffffffffff82111715612522576125216124cb565b5b80604052505050565b60006125356120e2565b905061254182826124fa565b919050565b600067ffffffffffffffff821115612561576125606124cb565b5b61256a82612389565b9050602081019050919050565b82818337600083830152505050565b600061259961259484612546565b61252b565b9050828152602081018484840111156125b5576125b46124c6565b5b6125c0848285612577565b509392505050565b600082601f8301126125dd576125dc6124c1565b5b81356125ed848260208601612586565b91505092915050565b6125ff8161219b565b811461260a57600080fd5b50565b60008135905061261c816125f6565b92915050565b600080600080600080600060e0888a031215612641576126406120ec565b5b600088013567ffffffffffffffff81111561265f5761265e6120f1565b5b61266b8a828b016125c8565b975050602088013567ffffffffffffffff81111561268c5761268b6120f1565b5b6126988a828b016125c8565b965050604088013567ffffffffffffffff8111156126b9576126b86120f1565b5b6126c58a828b016125c8565b95505060606126d68a828b0161210d565b94505060806126e78a828b0161210d565b93505060a088013567ffffffffffffffff811115612708576127076120f1565b5b6127148a828b016125c8565b92505060c06127258a828b0161260d565b91505092959891949750929550565b600061273f8261217b565b9050919050565b61274f81612734565b82525050565b600060208201905061276a6000830184612746565b92915050565b600082825260208201905092915050565b600061278c82612343565b6127968185612770565b93506127a681856020860161235f565b6127af81612389565b840191505092915050565b600082825260208201905092915050565b60006127d68261214f565b6127e081856127ba565b93506127eb8361216b565b8060005b8381101561281c57815161280388826121bc565b975061280e836121d4565b9250506001810190506127ef565b5085935050505092915050565b600082825260208201905092915050565b60006128458261223f565b61284f8185612829565b935061285a8361225b565b8060005b8381101561288b578151612872888261227a565b975061287d83612292565b92505060018101905061285e565b5085935050505092915050565b6128a1816123d3565b82525050565b6000610180830160008301516128c060008601826121ad565b50602083015184820360208601526128d88282612781565b915050604083015184820360408601526128f28282612781565b9150506060830151848203606086015261290c8282612781565b9150506080830151612921608086018261226b565b5060a083015161293460a086018261226b565b5060c083015161294760c086018261226b565b5060e083015184820360e086015261295f8282612781565b91505061010083015184820361010086015261297b82826127cb565b915050610120830151848203610120860152612997828261283a565b9150506101408301516129ae6101408601826121ad565b506101608301516129c3610160860182612898565b508091505092915050565b600060208201905081810360008301526129e881846128a7565b905092915050565b6000602082019050612a056000830184612334565b92915050565b600081519050919050565b600082825260208201905092915050565b6000819050602082019050919050565b600061018083016000830151612a5060008601826121ad565b5060208301518482036020860152612a688282612781565b91505060408301518482036040860152612a828282612781565b91505060608301518482036060860152612a9c8282612781565b9150506080830151612ab1608086018261226b565b5060a0830151612ac460a086018261226b565b5060c0830151612ad760c086018261226b565b5060e083015184820360e0860152612aef8282612781565b915050610100830151848203610100860152612b0b82826127cb565b915050610120830151848203610120860152612b27828261283a565b915050610140830151612b3e6101408601826121ad565b50610160830151612b53610160860182612898565b508091505092915050565b6000612b6a8383612a37565b905092915050565b6000602082019050919050565b6000612b8a82612a0b565b612b948185612a16565b935083602082028501612ba685612a27565b8060005b85811015612be25784840389528151612bc38582612b5e565b9450612bce83612b72565b925060208a01995050600181019050612baa565b50829750879550505050505092915050565b60006020820190508181036000830152612c0e8184612b7f565b905092915050565b600060208284031215612c2c57612c2b6120ec565b5b6000612c3a8482850161260d565b91505092915050565b60008060408385031215612c5a57612c596120ec565b5b6000612c688582860161210d565b9250506020612c798582860161210d565b9150509250929050565b7f50726f6a656374206d697373696e670000000000000000000000000000000000600082015250565b6000612cb9600f8361234e565b9150612cc482612c83565b602082019050919050565b60006020820190508181036000830152612ce881612cac565b9050919050565b7f596f75206d757374206e65656420746f20627579204752415600000000000000600082015250565b6000612d2560198361234e565b9150612d3082612cef565b602082019050919050565b60006020820190508181036000830152612d5481612d18565b9050919050565b7f4e487b7100000000000000000000000000000000000000000000000000000000600052602260045260246000fd5b60006002820490506001821680612da257607f821691505b602082108103612db557612db4612d5b565b5b50919050565b7f566f74696e67206f76657220796f752063616e206372656174652061206e6577600082015250565b6000612df160208361234e565b9150612dfc82612dbb565b602082019050919050565b60006020820190508181036000830152612e2081612de4565b9050919050565b7f4e487b7100000000000000000000000000000000000000000000000000000000600052601160045260246000fd5b6000612e61826120ae565b9150612e6c836120ae565b9250828201905080821115612e8457612e83612e27565b5b92915050565b7f4d696e696e756d20766f69636520313030204752417600000000000000000000600082015250565b6000612ec060168361234e565b9150612ecb82612e8a565b602082019050919050565b60006020820190508181036000830152612eef81612eb3565b9050919050565b7f436865636b20796f7520646561646c696e650000000000000000000000000000600082015250565b6000612f2c60128361234e565b9150612f3782612ef6565b602082019050919050565b60006020820190508181036000830152612f5b81612f1f565b9050919050565b7f5469746c6520697320736f206c6f6e6700000000000000000000000000000000600082015250565b6000612f9860108361234e565b9150612fa382612f62565b602082019050919050565b60006020820190508181036000830152612fc781612f8b565b9050919050565b7f4465736372697074696f6e20697320736f206c6f6e6700000000000000000000600082015250565b600061300460168361234e565b915061300f82612fce565b602082019050919050565b6000602082019050818103600083015261303381612ff7565b9050919050565b60008190508160005260206000209050919050565b60006020601f8301049050919050565b600082821b905092915050565b60006008830261309c7fffffffffffffffffffffffffffffffffffffffffffffffffffffffffffffffff8261305f565b6130a6868361305f565b95508019841693508086168417925050509392505050565b6000819050919050565b60006130e36130de6130d9846120ae565b6130be565b6120ae565b9050919050565b6000819050919050565b6130fd836130c8565b613111613109826130ea565b84845461306c565b825550505050565b600090565b613126613119565b6131318184846130f4565b505050565b5b818110156131555761314a60008261311e565b600181019050613137565b5050565b601f82111561319a5761316b8161303a565b6131748461304f565b81016020851015613183578190505b61319761318f8561304f565b830182613136565b50505b505050565b600082821c905092915050565b60006131bd6000198460080261319f565b1980831691505092915050565b60006131d683836131ac565b9150826002028217905092915050565b6131ef82612343565b67ffffffffffffffff811115613208576132076124cb565b5b6132128254612d8a565b61321d828285613159565b600060209050601f831160018114613250576000841561323e578287015190505b61324885826131ca565b8655506132b0565b601f19841661325e8661303a565b60005b8281101561328657848901518255600182019150602085019450602081019050613261565b868310156132a3578489015161329f601f8916826131ac565b8355505b6001600288020188555050505b505050505050565b60006132c3826120ae565b91507fffffffffffffffffffffffffffffffffffffffffffffffffffffffffffffffff82036132f5576132f4612e27565b5b600182019050919050565b600061330b826120ae565b9150613316836120ae565b925082820390508181111561332e5761332d612e27565b5b92915050565b7f496e73756666696369656e742047524156000000000000000000000000000000600082015250565b600061336a60118361234e565b915061337582613334565b602082019050919050565b600060208201905081810360008301526133998161335d565b9050919050565b7f4e487b7100000000000000000000000000000000000000000000000000000000600052603260045260246000fd5b7f4f6e6c79206f776e657200000000000000000000000000000000000000000000600082015250565b6000613405600a8361234e565b9150613410826133cf565b602082019050919050565b60006020820190508181036000830152613434816133f8565b9050919050565b7f5075626c69636174696f6e206f776e6572206f6e6c7900000000000000000000600082015250565b600061347160168361234e565b915061347c8261343b565b602082019050919050565b600060208201905081810360008301526134a081613464565b9050919050565b7f4d696e696d756d20766f74696e67000000000000000000000000000000000000600082015250565b60006134dd600e8361234e565b91506134e8826134a7565b602082019050919050565b6000602082019050818103600083015261350c816134d0565b9050919050565b7f4d6178696d756d20766f74696e67000000000000000000000000000000000000600082015250565b6000613549600e8361234e565b915061355482613513565b602082019050919050565b600060208201905081810360008301526135788161353c565b9050919050565b60008151905061358e816120f6565b92915050565b6000602082840312156135aa576135a96120ec565b5b60006135b88482850161357f565b91505092915050565b7f5265656e7472616e637947756172643a207265656e7472616e742063616c6c00600082015250565b60006135f7601f8361234e565b9150613602826135c1565b602082019050919050565b60006020820190508181036000830152613626816135ea565b9050919050565b7f4f776e65722063616e607420766f74696e670000000000000000000000000000600082015250565b600061366360128361234e565b915061366e8261362d565b602082019050919050565b6000602082019050818103600083015261369281613656565b9050919050565b7f506c656173652070726f7669646520612070726f6a656374206e756d6265722060008201527f696e20737570706f727400000000000000000000000000000000000000000000602082015250565b60006136f5602a8361234e565b915061370082613699565b604082019050919050565b60006020820190508181036000830152613724816136e8565b9050919050565b60006040820190506137406000830185612334565b61374d60208301846120b8565b9392505050565b61375d816123d3565b811461376857600080fd5b50565b60008151905061377a81613754565b92915050565b600060208284031215613796576137956120ec565b5b60006137a48482850161376b565b9150509291505056fea26469706673582212200ffcf588c2879ba17722dff4732772763ecc336a806e177eb1163fcac4675af264736f6c63430008130033",
  "linkReferences": {},
  "deployedLinkReferences": {}
}