{
  "_format": "hh-sol-artifact-1",
  "contractName": "Crowdsale",
  "sourceName": "contracts/Crowdsale.sol",
  "abi": [
    {
      "inputs": [
        {
          "internalType": "uint256",
          "name": "_rate",
          "type": "uint256"
        },
        {
          "internalType": "address payable",
          "name": "_wallet",
          "type": "address"
        },
        {
          "internalType": "contract ERC20",
          "name": "_token",
          "type": "address"
        }
      ],
      "stateMutability": "nonpayable",
      "type": "constructor"
    },
    {
      "anonymous": false,
      "inputs": [
        {
          "indexed": true,
          "internalType": "address",
          "name": "purchaser",
          "type": "address"
        },
        {
          "indexed": true,
          "internalType": "address",
          "name": "beneficiary",
          "type": "address"
        },
        {
          "indexed": false,
          "internalType": "uint256",
          "name": "value",
          "type": "uint256"
        },
        {
          "indexed": false,
          "internalType": "uint256",
          "name": "amount",
          "type": "uint256"
        }
      ],
      "name": "TokenPurchase",
      "type": "event"
    },
    {
      "stateMutability": "payable",
      "type": "fallback"
    },
    {
      "inputs": [
        {
          "internalType": "uint256",
          "name": "",
          "type": "uint256"
        }
      ],
      "name": "addresses",
      "outputs": [
        {
          "internalType": "address",
          "name": "",
          "type": "address"
        }
      ],
      "stateMutability": "view",
      "type": "function"
    },
    {
      "inputs": [
        {
          "internalType": "address",
          "name": "_beneficiary",
          "type": "address"
        }
      ],
      "name": "buyTokens",
      "outputs": [],
      "stateMutability": "payable",
      "type": "function"
    },
    {
      "inputs": [],
      "name": "numberOfaddress",
      "outputs": [
        {
          "internalType": "uint256",
          "name": "",
          "type": "uint256"
        }
      ],
      "stateMutability": "view",
      "type": "function"
    },
    {
      "inputs": [],
      "name": "rate",
      "outputs": [
        {
          "internalType": "uint256",
          "name": "",
          "type": "uint256"
        }
      ],
      "stateMutability": "view",
      "type": "function"
    },
    {
      "inputs": [],
      "name": "token",
      "outputs": [
        {
          "internalType": "contract ERC20",
          "name": "",
          "type": "address"
        }
      ],
      "stateMutability": "view",
      "type": "function"
    },
    {
      "inputs": [],
      "name": "valueFalse",
      "outputs": [],
      "stateMutability": "payable",
      "type": "function"
    },
    {
      "inputs": [],
      "name": "wallet",
      "outputs": [
        {
          "internalType": "address payable",
          "name": "",
          "type": "address"
        }
      ],
      "stateMutability": "view",
      "type": "function"
    },
    {
      "inputs": [],
      "name": "weiRaised",
      "outputs": [
        {
          "internalType": "uint256",
          "name": "",
          "type": "uint256"
        }
      ],
      "stateMutability": "view",
      "type": "function"
    },
    {
      "stateMutability": "payable",
      "type": "receive"
    }
  ],
  "bytecode": "0x608060405260006006553480156200001657600080fd5b5060405162000d7038038062000d7083398181016040528101906200003c91906200025d565b6001600081905550600083116200005257600080fd5b600073ffffffffffffffffffffffffffffffffffffffff168273ffffffffffffffffffffffffffffffffffffffff16036200008c57600080fd5b8260038190555081600260006101000a81548173ffffffffffffffffffffffffffffffffffffffff021916908373ffffffffffffffffffffffffffffffffffffffff16021790555080600160006101000a81548173ffffffffffffffffffffffffffffffffffffffff021916908373ffffffffffffffffffffffffffffffffffffffff16021790555033600460006101000a81548173ffffffffffffffffffffffffffffffffffffffff021916908373ffffffffffffffffffffffffffffffffffffffff160217905550505050620002b9565b600080fd5b6000819050919050565b620001798162000164565b81146200018557600080fd5b50565b60008151905062000199816200016e565b92915050565b600073ffffffffffffffffffffffffffffffffffffffff82169050919050565b6000620001cc826200019f565b9050919050565b620001de81620001bf565b8114620001ea57600080fd5b50565b600081519050620001fe81620001d3565b92915050565b600062000211826200019f565b9050919050565b6000620002258262000204565b9050919050565b620002378162000218565b81146200024357600080fd5b50565b60008151905062000257816200022c565b92915050565b6000806000606084860312156200027957620002786200015f565b5b6000620002898682870162000188565b93505060206200029c86828701620001ed565b9250506040620002af8682870162000246565b9150509250925092565b610aa780620002c96000396000f3fe60806040526004361061007f5760003560e01c8063e82ab0d11161004e578063e82ab0d114610145578063ec8ac4d81461014f578063edf26d9b1461016b578063fc0c546a146101a85761008e565b80632c4e722e146100995780634042b66f146100c4578063521eb273146100ef5780638a92868f1461011a5761008e565b3661008e5761008c6101d3565b005b61009733610218565b005b3480156100a557600080fd5b506100ae6102f0565b6040516100bb9190610600565b60405180910390f35b3480156100d057600080fd5b506100d96102f6565b6040516100e69190610600565b60405180910390f35b3480156100fb57600080fd5b506101046102fc565b604051610111919061065c565b60405180910390f35b34801561012657600080fd5b5061012f610322565b60405161013c9190610600565b60405180910390f35b61014d6101d3565b005b610169600480360381019061016491906106ba565b610218565b005b34801561017757600080fd5b50610192600480360381019061018d9190610713565b610328565b60405161019f919061074f565b60405180910390f35b3480156101b457600080fd5b506101bd61035b565b6040516101ca91906107c9565b60405180910390f35b60003411610216576040517f08c379a000000000000000000000000000000000000000000000000000000000815260040161020d90610841565b60405180910390fd5b565b610220610381565b600034905061022f82826103d0565b600061023a8261041a565b9050816005600082825461024e9190610890565b9250508190555061025f8382610431565b8273ffffffffffffffffffffffffffffffffffffffff163373ffffffffffffffffffffffffffffffffffffffff167f623b3804fa71d67900d064613da8f94b9617215ee90799290593e1745087ad1884846040516102be9291906108c4565b60405180910390a36102d0838361043f565b6102d8610443565b6102e38383836104ae565b50506102ed610538565b50565b60035481565b60055481565b600260009054906101000a900473ffffffffffffffffffffffffffffffffffffffff1681565b60065481565b60076020528060005260406000206000915054906101000a900473ffffffffffffffffffffffffffffffffffffffff1681565b600160009054906101000a900473ffffffffffffffffffffffffffffffffffffffff1681565b6002600054036103c6576040517f08c379a00000000000000000000000000000000000000000000000000000000081526004016103bd90610939565b60405180910390fd5b6002600081905550565b600073ffffffffffffffffffffffffffffffffffffffff168273ffffffffffffffffffffffffffffffffffffffff160361040957600080fd5b6000810361041657600080fd5b5050565b60006003548261042a9190610959565b9050919050565b61043b8282610542565b5050565b5050565b600260009054906101000a900473ffffffffffffffffffffffffffffffffffffffff1673ffffffffffffffffffffffffffffffffffffffff166108fc349081150290604051600060405180830381858888f193505050501580156104ab573d6000803e3d6000fd5b50565b620afc8081101580156104c15750600082115b15610533578260076000600654815260200190815260200160002060006101000a81548173ffffffffffffffffffffffffffffffffffffffff021916908373ffffffffffffffffffffffffffffffffffffffff1602179055506006600081548092919061052d9061099b565b91905055505b505050565b6001600081905550565b600160009054906101000a900473ffffffffffffffffffffffffffffffffffffffff1673ffffffffffffffffffffffffffffffffffffffff1663a9059cbb83836040518363ffffffff1660e01b815260040161059f9291906109e3565b6020604051808303816000875af11580156105be573d6000803e3d6000fd5b505050506040513d601f19601f820116820180604052508101906105e29190610a44565b505050565b6000819050919050565b6105fa816105e7565b82525050565b600060208201905061061560008301846105f1565b92915050565b600073ffffffffffffffffffffffffffffffffffffffff82169050919050565b60006106468261061b565b9050919050565b6106568161063b565b82525050565b6000602082019050610671600083018461064d565b92915050565b600080fd5b60006106878261061b565b9050919050565b6106978161067c565b81146106a257600080fd5b50565b6000813590506106b48161068e565b92915050565b6000602082840312156106d0576106cf610677565b5b60006106de848285016106a5565b91505092915050565b6106f0816105e7565b81146106fb57600080fd5b50565b60008135905061070d816106e7565b92915050565b60006020828403121561072957610728610677565b5b6000610737848285016106fe565b91505092915050565b6107498161067c565b82525050565b60006020820190506107646000830184610740565b92915050565b6000819050919050565b600061078f61078a6107858461061b565b61076a565b61061b565b9050919050565b60006107a182610774565b9050919050565b60006107b382610796565b9050919050565b6107c3816107a8565b82525050565b60006020820190506107de60008301846107ba565b92915050565b600082825260208201905092915050565b7f56616c7565206e6f7420656e6f75746800000000000000000000000000000000600082015250565b600061082b6010836107e4565b9150610836826107f5565b602082019050919050565b6000602082019050818103600083015261085a8161081e565b9050919050565b7f4e487b7100000000000000000000000000000000000000000000000000000000600052601160045260246000fd5b600061089b826105e7565b91506108a6836105e7565b92508282019050808211156108be576108bd610861565b5b92915050565b60006040820190506108d960008301856105f1565b6108e660208301846105f1565b9392505050565b7f5265656e7472616e637947756172643a207265656e7472616e742063616c6c00600082015250565b6000610923601f836107e4565b915061092e826108ed565b602082019050919050565b6000602082019050818103600083015261095281610916565b9050919050565b6000610964826105e7565b915061096f836105e7565b925082820261097d816105e7565b9150828204841483151761099457610993610861565b5b5092915050565b60006109a6826105e7565b91507fffffffffffffffffffffffffffffffffffffffffffffffffffffffffffffffff82036109d8576109d7610861565b5b600182019050919050565b60006040820190506109f86000830185610740565b610a0560208301846105f1565b9392505050565b60008115159050919050565b610a2181610a0c565b8114610a2c57600080fd5b50565b600081519050610a3e81610a18565b92915050565b600060208284031215610a5a57610a59610677565b5b6000610a6884828501610a2f565b9150509291505056fea26469706673582212203a4f929b22fdfde6828c85e2a96d7196360e772f81608a2dc3885cb78688941b64736f6c63430008130033",
  "linkReferences": {},
  "deployedLinkReferences": {}
}