{
  "_format": "hh-sol-artifact-1",
  "contractName": "Crowdsale",
  "sourceName": "contracts/Crowdsale.sol",
  "abi": [
    {
      "inputs": [
        {
          "internalType": "uint256",
          "name": "_rate",
          "type": "uint256"
        },
        {
          "internalType": "address payable",
          "name": "_wallet",
          "type": "address"
        },
        {
          "internalType": "contract ERC20",
          "name": "_token",
          "type": "address"
        }
      ],
      "stateMutability": "nonpayable",
      "type": "constructor"
    },
    {
      "anonymous": false,
      "inputs": [
        {
          "indexed": true,
          "internalType": "address",
          "name": "purchaser",
          "type": "address"
        },
        {
          "indexed": true,
          "internalType": "address",
          "name": "beneficiary",
          "type": "address"
        },
        {
          "indexed": false,
          "internalType": "uint256",
          "name": "value",
          "type": "uint256"
        },
        {
          "indexed": false,
          "internalType": "uint256",
          "name": "amount",
          "type": "uint256"
        }
      ],
      "name": "TokenPurchase",
      "type": "event"
    },
    {
      "stateMutability": "payable",
      "type": "fallback"
    },
    {
      "inputs": [
        {
          "internalType": "address",
          "name": "_beneficiary",
          "type": "address"
        }
      ],
      "name": "buyTokens",
      "outputs": [],
      "stateMutability": "payable",
      "type": "function"
    },
    {
      "inputs": [],
      "name": "rate",
      "outputs": [
        {
          "internalType": "uint256",
          "name": "",
          "type": "uint256"
        }
      ],
      "stateMutability": "view",
      "type": "function"
    },
    {
      "inputs": [],
      "name": "token",
      "outputs": [
        {
          "internalType": "contract ERC20",
          "name": "",
          "type": "address"
        }
      ],
      "stateMutability": "view",
      "type": "function"
    },
    {
      "inputs": [],
      "name": "wallet",
      "outputs": [
        {
          "internalType": "address payable",
          "name": "",
          "type": "address"
        }
      ],
      "stateMutability": "view",
      "type": "function"
    },
    {
      "inputs": [],
      "name": "weiRaised",
      "outputs": [
        {
          "internalType": "uint256",
          "name": "",
          "type": "uint256"
        }
      ],
      "stateMutability": "view",
      "type": "function"
    },
    {
      "stateMutability": "payable",
      "type": "receive"
    }
  ],
  "bytecode": "0x60806040523480156200001157600080fd5b5060405162000a5b38038062000a5b833981810160405281019062000037919062000217565b6001600081905550600083116200004d57600080fd5b600073ffffffffffffffffffffffffffffffffffffffff168273ffffffffffffffffffffffffffffffffffffffff16036200008757600080fd5b8260038190555081600260006101000a81548173ffffffffffffffffffffffffffffffffffffffff021916908373ffffffffffffffffffffffffffffffffffffffff16021790555080600160006101000a81548173ffffffffffffffffffffffffffffffffffffffff021916908373ffffffffffffffffffffffffffffffffffffffff16021790555050505062000273565b600080fd5b6000819050919050565b62000133816200011e565b81146200013f57600080fd5b50565b600081519050620001538162000128565b92915050565b600073ffffffffffffffffffffffffffffffffffffffff82169050919050565b6000620001868262000159565b9050919050565b620001988162000179565b8114620001a457600080fd5b50565b600081519050620001b8816200018d565b92915050565b6000620001cb8262000159565b9050919050565b6000620001df82620001be565b9050919050565b620001f181620001d2565b8114620001fd57600080fd5b50565b6000815190506200021181620001e6565b92915050565b60008060006060848603121562000233576200023262000119565b5b6000620002438682870162000142565b93505060206200025686828701620001a7565b9250506040620002698682870162000200565b9150509250925092565b6107d880620002836000396000f3fe60806040526004361061004e5760003560e01c80632c4e722e146100695780634042b66f14610094578063521eb273146100bf578063ec8ac4d8146100ea578063fc0c546a146101065761005e565b3661005e5761005c33610131565b005b61006733610131565b005b34801561007557600080fd5b5061007e610208565b60405161008b9190610459565b60405180910390f35b3480156100a057600080fd5b506100a961020e565b6040516100b69190610459565b60405180910390f35b3480156100cb57600080fd5b506100d4610214565b6040516100e191906104b5565b60405180910390f35b61010460048036038101906100ff9190610513565b610131565b005b34801561011257600080fd5b5061011b61023a565b604051610128919061059f565b60405180910390f35b610139610260565b600034905061014882826102af565b6000610153826102f9565b9050816004600082825461016791906105e9565b925050819055506101788382610310565b8273ffffffffffffffffffffffffffffffffffffffff163373ffffffffffffffffffffffffffffffffffffffff167f623b3804fa71d67900d064613da8f94b9617215ee90799290593e1745087ad1884846040516101d792919061061d565b60405180910390a36101e9838361031e565b6101f1610322565b6101fb838361038d565b5050610205610391565b50565b60035481565b60045481565b600260009054906101000a900473ffffffffffffffffffffffffffffffffffffffff1681565b600160009054906101000a900473ffffffffffffffffffffffffffffffffffffffff1681565b6002600054036102a5576040517f08c379a000000000000000000000000000000000000000000000000000000000815260040161029c906106a3565b60405180910390fd5b6002600081905550565b600073ffffffffffffffffffffffffffffffffffffffff168273ffffffffffffffffffffffffffffffffffffffff16036102e857600080fd5b600081036102f557600080fd5b5050565b60006003548261030991906106c3565b9050919050565b61031a828261039b565b5050565b5050565b600260009054906101000a900473ffffffffffffffffffffffffffffffffffffffff1673ffffffffffffffffffffffffffffffffffffffff166108fc349081150290604051600060405180830381858888f1935050505015801561038a573d6000803e3d6000fd5b50565b5050565b6001600081905550565b600160009054906101000a900473ffffffffffffffffffffffffffffffffffffffff1673ffffffffffffffffffffffffffffffffffffffff1663a9059cbb83836040518363ffffffff1660e01b81526004016103f8929190610714565b6020604051808303816000875af1158015610417573d6000803e3d6000fd5b505050506040513d601f19601f8201168201806040525081019061043b9190610775565b505050565b6000819050919050565b61045381610440565b82525050565b600060208201905061046e600083018461044a565b92915050565b600073ffffffffffffffffffffffffffffffffffffffff82169050919050565b600061049f82610474565b9050919050565b6104af81610494565b82525050565b60006020820190506104ca60008301846104a6565b92915050565b600080fd5b60006104e082610474565b9050919050565b6104f0816104d5565b81146104fb57600080fd5b50565b60008135905061050d816104e7565b92915050565b600060208284031215610529576105286104d0565b5b6000610537848285016104fe565b91505092915050565b6000819050919050565b600061056561056061055b84610474565b610540565b610474565b9050919050565b60006105778261054a565b9050919050565b60006105898261056c565b9050919050565b6105998161057e565b82525050565b60006020820190506105b46000830184610590565b92915050565b7f4e487b7100000000000000000000000000000000000000000000000000000000600052601160045260246000fd5b60006105f482610440565b91506105ff83610440565b9250828201905080821115610617576106166105ba565b5b92915050565b6000604082019050610632600083018561044a565b61063f602083018461044a565b9392505050565b600082825260208201905092915050565b7f5265656e7472616e637947756172643a207265656e7472616e742063616c6c00600082015250565b600061068d601f83610646565b915061069882610657565b602082019050919050565b600060208201905081810360008301526106bc81610680565b9050919050565b60006106ce82610440565b91506106d983610440565b92508282026106e781610440565b915082820484148315176106fe576106fd6105ba565b5b5092915050565b61070e816104d5565b82525050565b60006040820190506107296000830185610705565b610736602083018461044a565b9392505050565b60008115159050919050565b6107528161073d565b811461075d57600080fd5b50565b60008151905061076f81610749565b92915050565b60006020828403121561078b5761078a6104d0565b5b600061079984828501610760565b9150509291505056fea26469706673582212201aaa547754f76616b244b675f67d7a7ee062881eaa8e05b9faf5843c4fe5b3bc64736f6c63430008130033",
  "linkReferences": {},
  "deployedLinkReferences": {}
}